{
  "_format": "hh-sol-artifact-1",
  "contractName": "CauseVault",
  "sourceName": "contracts/CauseFund.sol",
  "abi": [
    {
      "inputs": [
        {
          "internalType": "string",
          "name": "_name",
          "type": "string"
        },
        {
          "internalType": "address",
          "name": "_owner",
          "type": "address"
        }
      ],
      "stateMutability": "nonpayable",
      "type": "constructor"
    },
    {
      "inputs": [
        {
          "internalType": "address",
          "name": "owner",
          "type": "address"
        }
      ],
      "name": "OwnableInvalidOwner",
      "type": "error"
    },
    {
      "inputs": [
        {
          "internalType": "address",
          "name": "account",
          "type": "address"
        }
      ],
      "name": "OwnableUnauthorizedAccount",
      "type": "error"
    },
    {
      "inputs": [
        {
          "internalType": "address",
          "name": "token",
          "type": "address"
        }
      ],
      "name": "SafeERC20FailedOperation",
      "type": "error"
    },
    {
      "anonymous": false,
      "inputs": [
        {
          "indexed": true,
          "internalType": "address",
          "name": "donor",
          "type": "address"
        },
        {
          "indexed": true,
          "internalType": "address",
          "name": "token",
          "type": "address"
        },
        {
          "indexed": false,
          "internalType": "uint256",
          "name": "amount",
          "type": "uint256"
        }
      ],
      "name": "FundsReceived",
      "type": "event"
    },
    {
      "anonymous": false,
      "inputs": [
        {
          "indexed": true,
          "internalType": "address",
          "name": "recipient",
          "type": "address"
        },
        {
          "indexed": true,
          "internalType": "address",
          "name": "token",
          "type": "address"
        },
        {
          "indexed": false,
          "internalType": "uint256",
          "name": "amount",
          "type": "uint256"
        }
      ],
      "name": "FundsWithdrawn",
      "type": "event"
    },
    {
      "anonymous": false,
      "inputs": [
        {
          "indexed": true,
          "internalType": "address",
          "name": "previousOwner",
          "type": "address"
        },
        {
          "indexed": true,
          "internalType": "address",
          "name": "newOwner",
          "type": "address"
        }
      ],
      "name": "OwnershipTransferred",
      "type": "event"
    },
    {
      "inputs": [
        {
          "internalType": "address",
          "name": "token",
          "type": "address"
        },
        {
          "internalType": "uint256",
          "name": "amount",
          "type": "uint256"
        }
      ],
      "name": "deposit",
      "outputs": [],
      "stateMutability": "nonpayable",
      "type": "function"
    },
    {
      "inputs": [],
      "name": "name",
      "outputs": [
        {
          "internalType": "string",
          "name": "",
          "type": "string"
        }
      ],
      "stateMutability": "view",
      "type": "function"
    },
    {
      "inputs": [],
      "name": "owner",
      "outputs": [
        {
          "internalType": "address",
          "name": "",
          "type": "address"
        }
      ],
      "stateMutability": "view",
      "type": "function"
    },
    {
      "inputs": [],
      "name": "renounceOwnership",
      "outputs": [],
      "stateMutability": "nonpayable",
      "type": "function"
    },
    {
      "inputs": [
        {
          "internalType": "address",
          "name": "newOwner",
          "type": "address"
        }
      ],
      "name": "transferOwnership",
      "outputs": [],
      "stateMutability": "nonpayable",
      "type": "function"
    },
    {
      "inputs": [
        {
          "internalType": "address",
          "name": "token",
          "type": "address"
        },
        {
          "internalType": "address",
          "name": "recipient",
          "type": "address"
        },
        {
          "internalType": "uint256",
          "name": "amount",
          "type": "uint256"
        }
      ],
      "name": "withdraw",
      "outputs": [],
      "stateMutability": "nonpayable",
      "type": "function"
    }
  ],
  "bytecode": "0x60806040523480156200001157600080fd5b506040516200130838038062001308833981810160405281019062000037919062000395565b80600073ffffffffffffffffffffffffffffffffffffffff168173ffffffffffffffffffffffffffffffffffffffff1603620000ad5760006040517f1e4fbdf7000000000000000000000000000000000000000000000000000000008152600401620000a491906200040c565b60405180910390fd5b620000be81620000d960201b60201c565b508160019081620000d0919062000674565b5050506200075b565b60008060009054906101000a900473ffffffffffffffffffffffffffffffffffffffff169050816000806101000a81548173ffffffffffffffffffffffffffffffffffffffff021916908373ffffffffffffffffffffffffffffffffffffffff1602179055508173ffffffffffffffffffffffffffffffffffffffff168173ffffffffffffffffffffffffffffffffffffffff167f8be0079c531659141344cd1fd0a4f28419497f9722a3daafe3b4186f6b6457e060405160405180910390a35050565b6000604051905090565b600080fd5b600080fd5b600080fd5b600080fd5b6000601f19601f8301169050919050565b7f4e487b7100000000000000000000000000000000000000000000000000000000600052604160045260246000fd5b6200020682620001bb565b810181811067ffffffffffffffff82111715620002285762000227620001cc565b5b80604052505050565b60006200023d6200019d565b90506200024b8282620001fb565b919050565b600067ffffffffffffffff8211156200026e576200026d620001cc565b5b6200027982620001bb565b9050602081019050919050565b60005b83811015620002a657808201518184015260208101905062000289565b60008484015250505050565b6000620002c9620002c38462000250565b62000231565b905082815260208101848484011115620002e857620002e7620001b6565b5b620002f584828562000286565b509392505050565b600082601f830112620003155762000314620001b1565b5b815162000327848260208601620002b2565b91505092915050565b600073ffffffffffffffffffffffffffffffffffffffff82169050919050565b60006200035d8262000330565b9050919050565b6200036f8162000350565b81146200037b57600080fd5b50565b6000815190506200038f8162000364565b92915050565b60008060408385031215620003af57620003ae620001a7565b5b600083015167ffffffffffffffff811115620003d057620003cf620001ac565b5b620003de85828601620002fd565b9250506020620003f1858286016200037e565b9150509250929050565b620004068162000350565b82525050565b6000602082019050620004236000830184620003fb565b92915050565b600081519050919050565b7f4e487b7100000000000000000000000000000000000000000000000000000000600052602260045260246000fd5b600060028204905060018216806200047c57607f821691505b60208210810362000492576200049162000434565b5b50919050565b60008190508160005260206000209050919050565b60006020601f8301049050919050565b600082821b905092915050565b600060088302620004fc7fffffffffffffffffffffffffffffffffffffffffffffffffffffffffffffffff82620004bd565b620005088683620004bd565b95508019841693508086168417925050509392505050565b6000819050919050565b6000819050919050565b6000620005556200054f620005498462000520565b6200052a565b62000520565b9050919050565b6000819050919050565b620005718362000534565b6200058962000580826200055c565b848454620004ca565b825550505050565b600090565b620005a062000591565b620005ad81848462000566565b505050565b5b81811015620005d557620005c960008262000596565b600181019050620005b3565b5050565b601f8211156200062457620005ee8162000498565b620005f984620004ad565b8101602085101562000609578190505b620006216200061885620004ad565b830182620005b2565b50505b505050565b600082821c905092915050565b6000620006496000198460080262000629565b1980831691505092915050565b600062000664838362000636565b9150826002028217905092915050565b6200067f8262000429565b67ffffffffffffffff8111156200069b576200069a620001cc565b5b620006a7825462000463565b620006b4828285620005d9565b600060209050601f831160018114620006ec5760008415620006d7578287015190505b620006e3858262000656565b86555062000753565b601f198416620006fc8662000498565b60005b828110156200072657848901518255600182019150602085019450602081019050620006ff565b8683101562000746578489015162000742601f89168262000636565b8355505b6001600288020188555050505b505050505050565b610b9d806200076b6000396000f3fe608060405234801561001057600080fd5b50600436106100625760003560e01c806306fdde031461006757806347e7ef2414610085578063715018a6146100a15780638da5cb5b146100ab578063d9caed12146100c9578063f2fde38b146100e5575b600080fd5b61006f610101565b60405161007c9190610800565b60405180910390f35b61009f600480360381019061009a91906108bb565b61018f565b005b6100a9610268565b005b6100b361027c565b6040516100c0919061090a565b60405180910390f35b6100e360048036038101906100de9190610925565b6102a5565b005b6100ff60048036038101906100fa9190610978565b6103f4565b005b6001805461010e906109d4565b80601f016020809104026020016040519081016040528092919081815260200182805461013a906109d4565b80156101875780601f1061015c57610100808354040283529160200191610187565b820191906000526020600020905b81548152906001019060200180831161016a57829003601f168201915b505050505081565b600081116101d2576040517f08c379a00000000000000000000000000000000000000000000000000000000081526004016101c990610a51565b60405180910390fd5b6101ff3330838573ffffffffffffffffffffffffffffffffffffffff1661047a909392919063ffffffff16565b8173ffffffffffffffffffffffffffffffffffffffff163373ffffffffffffffffffffffffffffffffffffffff167f7be377fc58fe5de9bdbdbb0bc41cba05cf72996fbddb2a421c0c52e405105d8c8360405161025c9190610a80565b60405180910390a35050565b6102706104fc565b61027a6000610583565b565b60008060009054906101000a900473ffffffffffffffffffffffffffffffffffffffff16905090565b6102ad6104fc565b600073ffffffffffffffffffffffffffffffffffffffff168273ffffffffffffffffffffffffffffffffffffffff160361031c576040517f08c379a000000000000000000000000000000000000000000000000000000000815260040161031390610ae7565b60405180910390fd5b6000811161035f576040517f08c379a000000000000000000000000000000000000000000000000000000000815260040161035690610a51565b60405180910390fd5b61038a82828573ffffffffffffffffffffffffffffffffffffffff166106479092919063ffffffff16565b8273ffffffffffffffffffffffffffffffffffffffff168273ffffffffffffffffffffffffffffffffffffffff167fa92ff919b850e4909ab2261d907ef955f11bc1716733a6cbece38d163a69af8a836040516103e79190610a80565b60405180910390a3505050565b6103fc6104fc565b600073ffffffffffffffffffffffffffffffffffffffff168173ffffffffffffffffffffffffffffffffffffffff160361046e5760006040517f1e4fbdf7000000000000000000000000000000000000000000000000000000008152600401610465919061090a565b60405180910390fd5b61047781610583565b50565b6104f6848573ffffffffffffffffffffffffffffffffffffffff166323b872dd8686866040516024016104af93929190610b07565b604051602081830303815290604052915060e01b6020820180517bffffffffffffffffffffffffffffffffffffffffffffffffffffffff83818316178352505050506106c6565b50505050565b610504610768565b73ffffffffffffffffffffffffffffffffffffffff1661052261027c565b73ffffffffffffffffffffffffffffffffffffffff161461058157610545610768565b6040517f118cdaa7000000000000000000000000000000000000000000000000000000008152600401610578919061090a565b60405180910390fd5b565b60008060009054906101000a900473ffffffffffffffffffffffffffffffffffffffff169050816000806101000a81548173ffffffffffffffffffffffffffffffffffffffff021916908373ffffffffffffffffffffffffffffffffffffffff1602179055508173ffffffffffffffffffffffffffffffffffffffff168173ffffffffffffffffffffffffffffffffffffffff167f8be0079c531659141344cd1fd0a4f28419497f9722a3daafe3b4186f6b6457e060405160405180910390a35050565b6106c1838473ffffffffffffffffffffffffffffffffffffffff1663a9059cbb858560405160240161067a929190610b3e565b604051602081830303815290604052915060e01b6020820180517bffffffffffffffffffffffffffffffffffffffffffffffffffffffff83818316178352505050506106c6565b505050565b600080602060008451602086016000885af1806106e9576040513d6000823e3d81fd5b3d925060005191505060008214610704576001811415610720565b60008473ffffffffffffffffffffffffffffffffffffffff163b145b1561076257836040517f5274afe7000000000000000000000000000000000000000000000000000000008152600401610759919061090a565b60405180910390fd5b50505050565b600033905090565b600081519050919050565b600082825260208201905092915050565b60005b838110156107aa57808201518184015260208101905061078f565b60008484015250505050565b6000601f19601f8301169050919050565b60006107d282610770565b6107dc818561077b565b93506107ec81856020860161078c565b6107f5816107b6565b840191505092915050565b6000602082019050818103600083015261081a81846107c7565b905092915050565b600080fd5b600073ffffffffffffffffffffffffffffffffffffffff82169050919050565b600061085282610827565b9050919050565b61086281610847565b811461086d57600080fd5b50565b60008135905061087f81610859565b92915050565b6000819050919050565b61089881610885565b81146108a357600080fd5b50565b6000813590506108b58161088f565b92915050565b600080604083850312156108d2576108d1610822565b5b60006108e085828601610870565b92505060206108f1858286016108a6565b9150509250929050565b61090481610847565b82525050565b600060208201905061091f60008301846108fb565b92915050565b60008060006060848603121561093e5761093d610822565b5b600061094c86828701610870565b935050602061095d86828701610870565b925050604061096e868287016108a6565b9150509250925092565b60006020828403121561098e5761098d610822565b5b600061099c84828501610870565b91505092915050565b7f4e487b7100000000000000000000000000000000000000000000000000000000600052602260045260246000fd5b600060028204905060018216806109ec57607f821691505b6020821081036109ff576109fe6109a5565b5b50919050565b7f416d6f756e74206d7573742062652067726561746572207468616e2030000000600082015250565b6000610a3b601d8361077b565b9150610a4682610a05565b602082019050919050565b60006020820190508181036000830152610a6a81610a2e565b9050919050565b610a7a81610885565b82525050565b6000602082019050610a956000830184610a71565b92915050565b7f496e76616c696420726563697069656e74000000000000000000000000000000600082015250565b6000610ad160118361077b565b9150610adc82610a9b565b602082019050919050565b60006020820190508181036000830152610b0081610ac4565b9050919050565b6000606082019050610b1c60008301866108fb565b610b2960208301856108fb565b610b366040830184610a71565b949350505050565b6000604082019050610b5360008301856108fb565b610b606020830184610a71565b939250505056fea2646970667358221220861509d94f8ae88e3e64e388078db51684216e07a1dce12970f26016e7ea88f864736f6c63430008140033",
  "linkReferences": {},
  "deployedLinkReferences": {}
}