{
  "address": "0x79213fc0eF8b7ecb29cfF9B13BA23ecF5c0B898a",
  "abi": [
    {
      "inputs": [
        {
          "internalType": "address",
          "name": "_treasury",
          "type": "address"
        }
      ],
      "stateMutability": "nonpayable",
      "type": "constructor"
    },
    {
      "inputs": [
        {
          "internalType": "address",
          "name": "target",
          "type": "address"
        }
      ],
      "name": "AddressEmptyCode",
      "type": "error"
    },
    {
      "inputs": [
        {
          "internalType": "address",
          "name": "account",
          "type": "address"
        }
      ],
      "name": "AddressInsufficientBalance",
      "type": "error"
    },
    {
      "inputs": [],
      "name": "FailedInnerCall",
      "type": "error"
    },
    {
      "inputs": [
        {
          "internalType": "address",
          "name": "owner",
          "type": "address"
        }
      ],
      "name": "OwnableInvalidOwner",
      "type": "error"
    },
    {
      "inputs": [
        {
          "internalType": "address",
          "name": "account",
          "type": "address"
        }
      ],
      "name": "OwnableUnauthorizedAccount",
      "type": "error"
    },
    {
      "inputs": [
        {
          "internalType": "address",
          "name": "token",
          "type": "address"
        }
      ],
      "name": "SafeERC20FailedOperation",
      "type": "error"
    },
    {
      "anonymous": false,
      "inputs": [
        {
          "indexed": true,
          "internalType": "address",
          "name": "previousOwner",
          "type": "address"
        },
        {
          "indexed": true,
          "internalType": "address",
          "name": "newOwner",
          "type": "address"
        }
      ],
      "name": "OwnershipTransferred",
      "type": "event"
    },
    {
      "anonymous": false,
      "inputs": [
        {
          "indexed": true,
          "internalType": "address",
          "name": "booster",
          "type": "address"
        },
        {
          "indexed": false,
          "internalType": "string",
          "name": "projectId",
          "type": "string"
        },
        {
          "indexed": true,
          "internalType": "address",
          "name": "token",
          "type": "address"
        },
        {
          "indexed": false,
          "internalType": "uint256",
          "name": "amount",
          "type": "uint256"
        }
      ],
      "name": "ProjectBoosted",
      "type": "event"
    },
    {
      "anonymous": false,
      "inputs": [
        {
          "indexed": true,
          "internalType": "address",
          "name": "oldTreasury",
          "type": "address"
        },
        {
          "indexed": true,
          "internalType": "address",
          "name": "newTreasury",
          "type": "address"
        }
      ],
      "name": "TreasuryUpdated",
      "type": "event"
    },
    {
      "inputs": [
        {
          "internalType": "string",
          "name": "projectId",
          "type": "string"
        },
        {
          "internalType": "address",
          "name": "token",
          "type": "address"
        },
        {
          "internalType": "uint256",
          "name": "amount",
          "type": "uint256"
        }
      ],
      "name": "boostProject",
      "outputs": [],
      "stateMutability": "nonpayable",
      "type": "function"
    },
    {
      "inputs": [],
      "name": "owner",
      "outputs": [
        {
          "internalType": "address",
          "name": "",
          "type": "address"
        }
      ],
      "stateMutability": "view",
      "type": "function"
    },
    {
      "inputs": [],
      "name": "renounceOwnership",
      "outputs": [],
      "stateMutability": "nonpayable",
      "type": "function"
    },
    {
      "inputs": [
        {
          "internalType": "address",
          "name": "_newTreasury",
          "type": "address"
        }
      ],
      "name": "setTreasury",
      "outputs": [],
      "stateMutability": "nonpayable",
      "type": "function"
    },
    {
      "inputs": [
        {
          "internalType": "address",
          "name": "newOwner",
          "type": "address"
        }
      ],
      "name": "transferOwnership",
      "outputs": [],
      "stateMutability": "nonpayable",
      "type": "function"
    },
    {
      "inputs": [],
      "name": "treasury",
      "outputs": [
        {
          "internalType": "address",
          "name": "",
          "type": "address"
        }
      ],
      "stateMutability": "view",
      "type": "function"
    }
  ],
  "transactionHash": "0xe0a8408ca3791ff279cd3cc234dd096492c0f60755d44ff86ac157179b7f84e2",
  "args": [
    "0x914d83613ec44473DecE1D513F544fd048143140"
  ],
  "numDeployments": 1,
  "solcInputHash": "8960eea64f376030e71b54c60a96a555",
  "bytecode": "0x608060405234801561001057600080fd5b5060405161088a38038061088a83398101604081905261002f9161012b565b338061005657604051631e4fbdf760e01b8152600060048201526024015b60405180910390fd5b61005f816100db565b506001600160a01b0381166100b65760405162461bcd60e51b815260206004820152601860248201527f496e76616c696420747265617375727920616464726573730000000000000000604482015260640161004d565b600180546001600160a01b0319166001600160a01b039290921691909117905561015b565b600080546001600160a01b038381166001600160a01b0319831681178455604051919092169283917f8be0079c531659141344cd1fd0a4f28419497f9722a3daafe3b4186f6b6457e09190a35050565b60006020828403121561013d57600080fd5b81516001600160a01b038116811461015457600080fd5b9392505050565b6107208061016a6000396000f3fe608060405234801561001057600080fd5b50600436106100625760003560e01c80631d924c3f1461006757806361d027b31461007c578063715018a6146100ab5780638da5cb5b146100b3578063f0f44260146100c4578063f2fde38b146100d7575b600080fd5b61007a610075366004610567565b6100ea565b005b60015461008f906001600160a01b031681565b6040516001600160a01b03909116815260200160405180910390f35b61007a6101ad565b6000546001600160a01b031661008f565b61007a6100d2366004610632565b6101c1565b61007a6100e5366004610632565b61027b565b6000811161013f5760405162461bcd60e51b815260206004820152601d60248201527f416d6f756e74206d7573742062652067726561746572207468616e203000000060448201526064015b60405180910390fd5b60015461015b906001600160a01b0384811691339116846102b9565b816001600160a01b0316336001600160a01b03167f43d65298ce07430cb26b01ea824fdd6aee0b02740ff7c031850b9bf2a25f9a7f85846040516101a0929190610671565b60405180910390a3505050565b6101b5610319565b6101bf6000610346565b565b6101c9610319565b6001600160a01b03811661021f5760405162461bcd60e51b815260206004820152601860248201527f496e76616c6964207472656173757279206164647265737300000000000000006044820152606401610136565b6001546040516001600160a01b038084169216907f4ab5be82436d353e61ca18726e984e561f5c1cc7c6d38b29d2553c790434705a90600090a3600180546001600160a01b0319166001600160a01b0392909216919091179055565b610283610319565b6001600160a01b0381166102ad57604051631e4fbdf760e01b815260006004820152602401610136565b6102b681610346565b50565b604080516001600160a01b0385811660248301528416604482015260648082018490528251808303909101815260849091019091526020810180516001600160e01b03166323b872dd60e01b179052610313908590610396565b50505050565b6000546001600160a01b031633146101bf5760405163118cdaa760e01b8152336004820152602401610136565b600080546001600160a01b038381166001600160a01b0319831681178455604051919092169283917f8be0079c531659141344cd1fd0a4f28419497f9722a3daafe3b4186f6b6457e09190a35050565b60006103ab6001600160a01b038416836103fe565b905080516000141580156103d05750808060200190518101906103ce91906106ac565b155b156103f957604051635274afe760e01b81526001600160a01b0384166004820152602401610136565b505050565b606061040c83836000610413565b9392505050565b6060814710156104385760405163cd78605960e01b8152306004820152602401610136565b600080856001600160a01b0316848660405161045491906106ce565b60006040518083038185875af1925050503d8060008114610491576040519150601f19603f3d011682016040523d82523d6000602084013e610496565b606091505b50915091506104a68683836104b0565b9695505050505050565b6060826104c5576104c08261050c565b61040c565b81511580156104dc57506001600160a01b0384163b155b1561050557604051639996b31560e01b81526001600160a01b0385166004820152602401610136565b508061040c565b80511561051c5780518082602001fd5b604051630a12f52160e11b815260040160405180910390fd5b634e487b7160e01b600052604160045260246000fd5b80356001600160a01b038116811461056257600080fd5b919050565b60008060006060848603121561057c57600080fd5b833567ffffffffffffffff8082111561059457600080fd5b818601915086601f8301126105a857600080fd5b8135818111156105ba576105ba610535565b604051601f8201601f19908116603f011681019083821181831017156105e2576105e2610535565b816040528281528960208487010111156105fb57600080fd5b8260208601602083013760006020848301015280975050505050506106226020850161054b565b9150604084013590509250925092565b60006020828403121561064457600080fd5b61040c8261054b565b60005b83811015610668578181015183820152602001610650565b50506000910152565b604081526000835180604084015261069081606085016020880161064d565b602083019390935250601f91909101601f191601606001919050565b6000602082840312156106be57600080fd5b8151801515811461040c57600080fd5b600082516106e081846020870161064d565b919091019291505056fea26469706673582212209c0fcaf970f30d1715f8220079055d1e50eddfefaa198272762e0f5bc1beedc664736f6c63430008140033",
  "devdoc": {
    "details": "Handles fees for boosting projects.",
    "errors": {
      "AddressEmptyCode(address)": [
        {
          "details": "There's no code at `target` (it is not a contract)."
        }
      ],
      "AddressInsufficientBalance(address)": [
        {
          "details": "The ETH balance of the account is not enough to perform the operation."
        }
      ],
      "FailedInnerCall()": [
        {
          "details": "A call to an address target failed. The target may have reverted."
        }
      ],
      "OwnableInvalidOwner(address)": [
        {
          "details": "The owner is not a valid owner account. (eg. `address(0)`)"
        }
      ],
      "OwnableUnauthorizedAccount(address)": [
        {
          "details": "The caller account is not authorized to perform an operation."
        }
      ],
      "SafeERC20FailedOperation(address)": [
        {
          "details": "An operation with an ERC20 token failed."
        }
      ]
    },
    "kind": "dev",
    "methods": {
      "boostProject(string,address,uint256)": {
        "details": "Boosts a project by paying a fee to the treasury.",
        "params": {
          "amount": "The amount of fee to pay.",
          "projectId": "The ID of the project to boost.",
          "token": "The address of the ERC20 token used for payment."
        }
      },
      "owner()": {
        "details": "Returns the address of the current owner."
      },
      "renounceOwnership()": {
        "details": "Leaves the contract without owner. It will not be possible to call `onlyOwner` functions. Can only be called by the current owner. NOTE: Renouncing ownership will leave the contract without an owner, thereby disabling any functionality that is only available to the owner."
      },
      "setTreasury(address)": {
        "details": "Updates the treasury address.",
        "params": {
          "_newTreasury": "The new treasury address."
        }
      },
      "transferOwnership(address)": {
        "details": "Transfers ownership of the contract to a new account (`newOwner`). Can only be called by the current owner."
      }
    },
    "title": "BoostManager",
    "version": 1
  },
  "userdoc": {
    "kind": "user",
    "methods": {},
    "version": 1
  },
  "storageLayout": {
    "storage": [
      {
        "astId": 8,
        "contract": "contracts/BoostManager.sol:BoostManager",
        "label": "_owner",
        "offset": 0,
        "slot": "0",
        "type": "t_address"
      },
      {
        "astId": 1526,
        "contract": "contracts/BoostManager.sol:BoostManager",
        "label": "treasury",
        "offset": 0,
        "slot": "1",
        "type": "t_address"
      }
    ],
    "types": {
      "t_address": {
        "encoding": "inplace",
        "label": "address",
        "numberOfBytes": "20"
      }
    }
  }
}