{
  "_format": "hh-sol-artifact-1",
  "contractName": "SwipeDonation",
  "sourceName": "contracts/SwipeDonation.sol",
  "abi": [
    {
      "inputs": [],
      "stateMutability": "nonpayable",
      "type": "constructor"
    },
    {
      "inputs": [
        {
          "internalType": "address",
          "name": "owner",
          "type": "address"
        }
      ],
      "name": "OwnableInvalidOwner",
      "type": "error"
    },
    {
      "inputs": [
        {
          "internalType": "address",
          "name": "account",
          "type": "address"
        }
      ],
      "name": "OwnableUnauthorizedAccount",
      "type": "error"
    },
    {
      "inputs": [
        {
          "internalType": "address",
          "name": "token",
          "type": "address"
        }
      ],
      "name": "SafeERC20FailedOperation",
      "type": "error"
    },
    {
      "anonymous": false,
      "inputs": [
        {
          "indexed": true,
          "internalType": "address",
          "name": "donor",
          "type": "address"
        },
        {
          "indexed": true,
          "internalType": "address",
          "name": "token",
          "type": "address"
        },
        {
          "indexed": false,
          "internalType": "uint256",
          "name": "totalAmount",
          "type": "uint256"
        },
        {
          "indexed": false,
          "internalType": "uint256",
          "name": "recipientCount",
          "type": "uint256"
        }
      ],
      "name": "BatchDonation",
      "type": "event"
    },
    {
      "anonymous": false,
      "inputs": [
        {
          "indexed": true,
          "internalType": "address",
          "name": "donor",
          "type": "address"
        },
        {
          "indexed": true,
          "internalType": "address",
          "name": "recipient",
          "type": "address"
        },
        {
          "indexed": true,
          "internalType": "address",
          "name": "token",
          "type": "address"
        },
        {
          "indexed": false,
          "internalType": "uint256",
          "name": "amount",
          "type": "uint256"
        }
      ],
      "name": "Donation",
      "type": "event"
    },
    {
      "anonymous": false,
      "inputs": [
        {
          "indexed": true,
          "internalType": "address",
          "name": "previousOwner",
          "type": "address"
        },
        {
          "indexed": true,
          "internalType": "address",
          "name": "newOwner",
          "type": "address"
        }
      ],
      "name": "OwnershipTransferred",
      "type": "event"
    },
    {
      "inputs": [
        {
          "internalType": "address",
          "name": "token",
          "type": "address"
        },
        {
          "internalType": "address[]",
          "name": "recipients",
          "type": "address[]"
        },
        {
          "internalType": "uint256[]",
          "name": "amounts",
          "type": "uint256[]"
        }
      ],
      "name": "batchDonate",
      "outputs": [],
      "stateMutability": "nonpayable",
      "type": "function"
    },
    {
      "inputs": [
        {
          "internalType": "address",
          "name": "token",
          "type": "address"
        },
        {
          "internalType": "address",
          "name": "recipient",
          "type": "address"
        },
        {
          "internalType": "uint256",
          "name": "amount",
          "type": "uint256"
        }
      ],
      "name": "donate",
      "outputs": [],
      "stateMutability": "nonpayable",
      "type": "function"
    },
    {
      "inputs": [],
      "name": "owner",
      "outputs": [
        {
          "internalType": "address",
          "name": "",
          "type": "address"
        }
      ],
      "stateMutability": "view",
      "type": "function"
    },
    {
      "inputs": [],
      "name": "renounceOwnership",
      "outputs": [],
      "stateMutability": "nonpayable",
      "type": "function"
    },
    {
      "inputs": [
        {
          "internalType": "address",
          "name": "newOwner",
          "type": "address"
        }
      ],
      "name": "transferOwnership",
      "outputs": [],
      "stateMutability": "nonpayable",
      "type": "function"
    }
  ],
  "bytecode": "0x608060405234801561001057600080fd5b5033600073ffffffffffffffffffffffffffffffffffffffff168173ffffffffffffffffffffffffffffffffffffffff16036100845760006040517f1e4fbdf700000000000000000000000000000000000000000000000000000000815260040161007b919061019e565b60405180910390fd5b6100938161009960201b60201c565b506101b9565b60008060009054906101000a900473ffffffffffffffffffffffffffffffffffffffff169050816000806101000a81548173ffffffffffffffffffffffffffffffffffffffff021916908373ffffffffffffffffffffffffffffffffffffffff1602179055508173ffffffffffffffffffffffffffffffffffffffff168173ffffffffffffffffffffffffffffffffffffffff167f8be0079c531659141344cd1fd0a4f28419497f9722a3daafe3b4186f6b6457e060405160405180910390a35050565b600073ffffffffffffffffffffffffffffffffffffffff82169050919050565b60006101888261015d565b9050919050565b6101988161017d565b82525050565b60006020820190506101b3600083018461018f565b92915050565b610eca806101c86000396000f3fe608060405234801561001057600080fd5b50600436106100575760003560e01c8063386bc05a1461005c5780634d0dea3614610078578063715018a6146100945780638da5cb5b1461009e578063f2fde38b146100bc575b600080fd5b61007660048036038101906100719190610975565b6100d8565b005b610092600480360381019061008d9190610a83565b610238565b005b61009c61059d565b005b6100a66105b1565b6040516100b39190610b27565b60405180910390f35b6100d660048036038101906100d19190610b42565b6105da565b005b600073ffffffffffffffffffffffffffffffffffffffff168273ffffffffffffffffffffffffffffffffffffffff1603610147576040517f08c379a000000000000000000000000000000000000000000000000000000000815260040161013e90610bcc565b60405180910390fd5b6000811161018a576040517f08c379a000000000000000000000000000000000000000000000000000000000815260040161018190610c38565b60405180910390fd5b6101b73383838673ffffffffffffffffffffffffffffffffffffffff16610660909392919063ffffffff16565b8273ffffffffffffffffffffffffffffffffffffffff168273ffffffffffffffffffffffffffffffffffffffff163373ffffffffffffffffffffffffffffffffffffffff167f428dc52298588fcaf139f3333b0746ef840af177575db616d88d5f735898cffb8460405161022b9190610c67565b60405180910390a4505050565b818190508484905014610280576040517f08c379a000000000000000000000000000000000000000000000000000000000815260040161027790610cce565b60405180910390fd5b600084849050116102c6576040517f08c379a00000000000000000000000000000000000000000000000000000000081526004016102bd90610d3a565b60405180910390fd5b6000805b8585905081101561052a57600073ffffffffffffffffffffffffffffffffffffffff16868683818110610300576102ff610d5a565b5b90506020020160208101906103159190610b42565b73ffffffffffffffffffffffffffffffffffffffff160361036b576040517f08c379a000000000000000000000000000000000000000000000000000000000815260040161036290610bcc565b60405180910390fd5b60008484838181106103805761037f610d5a565b5b90506020020135116103c7576040517f08c379a00000000000000000000000000000000000000000000000000000000081526004016103be90610c38565b60405180910390fd5b610434338787848181106103de576103dd610d5a565b5b90506020020160208101906103f39190610b42565b86868581811061040657610405610d5a565b5b905060200201358a73ffffffffffffffffffffffffffffffffffffffff16610660909392919063ffffffff16565b83838281811061044757610446610d5a565b5b90506020020135826104599190610db8565b91508673ffffffffffffffffffffffffffffffffffffffff1686868381811061048557610484610d5a565b5b905060200201602081019061049a9190610b42565b73ffffffffffffffffffffffffffffffffffffffff163373ffffffffffffffffffffffffffffffffffffffff167f428dc52298588fcaf139f3333b0746ef840af177575db616d88d5f735898cffb8787868181106104fb576104fa610d5a565b5b9050602002013560405161050f9190610c67565b60405180910390a4808061052290610dec565b9150506102ca565b508573ffffffffffffffffffffffffffffffffffffffff163373ffffffffffffffffffffffffffffffffffffffff167fb63dcceb3c85eb40bdb0012a05e6d58c104b368815bdf4a0cd6986bda2b22586838888905060405161058d929190610e34565b60405180910390a3505050505050565b6105a56106e2565b6105af6000610769565b565b60008060009054906101000a900473ffffffffffffffffffffffffffffffffffffffff16905090565b6105e26106e2565b600073ffffffffffffffffffffffffffffffffffffffff168173ffffffffffffffffffffffffffffffffffffffff16036106545760006040517f1e4fbdf700000000000000000000000000000000000000000000000000000000815260040161064b9190610b27565b60405180910390fd5b61065d81610769565b50565b6106dc848573ffffffffffffffffffffffffffffffffffffffff166323b872dd86868660405160240161069593929190610e5d565b604051602081830303815290604052915060e01b6020820180517bffffffffffffffffffffffffffffffffffffffffffffffffffffffff838183161783525050505061082d565b50505050565b6106ea6108cf565b73ffffffffffffffffffffffffffffffffffffffff166107086105b1565b73ffffffffffffffffffffffffffffffffffffffff16146107675761072b6108cf565b6040517f118cdaa700000000000000000000000000000000000000000000000000000000815260040161075e9190610b27565b60405180910390fd5b565b60008060009054906101000a900473ffffffffffffffffffffffffffffffffffffffff169050816000806101000a81548173ffffffffffffffffffffffffffffffffffffffff021916908373ffffffffffffffffffffffffffffffffffffffff1602179055508173ffffffffffffffffffffffffffffffffffffffff168173ffffffffffffffffffffffffffffffffffffffff167f8be0079c531659141344cd1fd0a4f28419497f9722a3daafe3b4186f6b6457e060405160405180910390a35050565b600080602060008451602086016000885af180610850576040513d6000823e3d81fd5b3d92506000519150506000821461086b576001811415610887565b60008473ffffffffffffffffffffffffffffffffffffffff163b145b156108c957836040517f5274afe70000000000000000000000000000000000000000000000000000000081526004016108c09190610b27565b60405180910390fd5b50505050565b600033905090565b600080fd5b600080fd5b600073ffffffffffffffffffffffffffffffffffffffff82169050919050565b600061090c826108e1565b9050919050565b61091c81610901565b811461092757600080fd5b50565b60008135905061093981610913565b92915050565b6000819050919050565b6109528161093f565b811461095d57600080fd5b50565b60008135905061096f81610949565b92915050565b60008060006060848603121561098e5761098d6108d7565b5b600061099c8682870161092a565b93505060206109ad8682870161092a565b92505060406109be86828701610960565b9150509250925092565b600080fd5b600080fd5b600080fd5b60008083601f8401126109ed576109ec6109c8565b5b8235905067ffffffffffffffff811115610a0a57610a096109cd565b5b602083019150836020820283011115610a2657610a256109d2565b5b9250929050565b60008083601f840112610a4357610a426109c8565b5b8235905067ffffffffffffffff811115610a6057610a5f6109cd565b5b602083019150836020820283011115610a7c57610a7b6109d2565b5b9250929050565b600080600080600060608688031215610a9f57610a9e6108d7565b5b6000610aad8882890161092a565b955050602086013567ffffffffffffffff811115610ace57610acd6108dc565b5b610ada888289016109d7565b9450945050604086013567ffffffffffffffff811115610afd57610afc6108dc565b5b610b0988828901610a2d565b92509250509295509295909350565b610b2181610901565b82525050565b6000602082019050610b3c6000830184610b18565b92915050565b600060208284031215610b5857610b576108d7565b5b6000610b668482850161092a565b91505092915050565b600082825260208201905092915050565b7f496e76616c696420726563697069656e74000000000000000000000000000000600082015250565b6000610bb6601183610b6f565b9150610bc182610b80565b602082019050919050565b60006020820190508181036000830152610be581610ba9565b9050919050565b7f416d6f756e74206d7573742062652067726561746572207468616e2030000000600082015250565b6000610c22601d83610b6f565b9150610c2d82610bec565b602082019050919050565b60006020820190508181036000830152610c5181610c15565b9050919050565b610c618161093f565b82525050565b6000602082019050610c7c6000830184610c58565b92915050565b7f417272617973206c656e677468206d69736d6174636800000000000000000000600082015250565b6000610cb8601683610b6f565b9150610cc382610c82565b602082019050919050565b60006020820190508181036000830152610ce781610cab565b9050919050565b7f4e6f20726563697069656e74732070726f766964656400000000000000000000600082015250565b6000610d24601683610b6f565b9150610d2f82610cee565b602082019050919050565b60006020820190508181036000830152610d5381610d17565b9050919050565b7f4e487b7100000000000000000000000000000000000000000000000000000000600052603260045260246000fd5b7f4e487b7100000000000000000000000000000000000000000000000000000000600052601160045260246000fd5b6000610dc38261093f565b9150610dce8361093f565b9250828201905080821115610de657610de5610d89565b5b92915050565b6000610df78261093f565b91507fffffffffffffffffffffffffffffffffffffffffffffffffffffffffffffffff8203610e2957610e28610d89565b5b600182019050919050565b6000604082019050610e496000830185610c58565b610e566020830184610c58565b9392505050565b6000606082019050610e726000830186610b18565b610e7f6020830185610b18565b610e8c6040830184610c58565b94935050505056fea264697066735822122062fddc764e4123addcffb17b9d310e7124a6e76c14a9a706d77b05dfdc5f865e64736f6c63430008140033",
  "linkReferences": {},
  "deployedLinkReferences": {}
}