{
  "_format": "hh-sol-artifact-1",
  "contractName": "CauseFundFactory",
  "sourceName": "contracts/CauseFund.sol",
  "abi": [
    {
      "inputs": [],
      "stateMutability": "nonpayable",
      "type": "constructor"
    },
    {
      "inputs": [
        {
          "internalType": "address",
          "name": "owner",
          "type": "address"
        }
      ],
      "name": "OwnableInvalidOwner",
      "type": "error"
    },
    {
      "inputs": [
        {
          "internalType": "address",
          "name": "account",
          "type": "address"
        }
      ],
      "name": "OwnableUnauthorizedAccount",
      "type": "error"
    },
    {
      "anonymous": false,
      "inputs": [
        {
          "indexed": false,
          "internalType": "string",
          "name": "name",
          "type": "string"
        },
        {
          "indexed": false,
          "internalType": "address",
          "name": "vaultAddress",
          "type": "address"
        }
      ],
      "name": "CauseVaultCreated",
      "type": "event"
    },
    {
      "anonymous": false,
      "inputs": [
        {
          "indexed": true,
          "internalType": "address",
          "name": "previousOwner",
          "type": "address"
        },
        {
          "indexed": true,
          "internalType": "address",
          "name": "newOwner",
          "type": "address"
        }
      ],
      "name": "OwnershipTransferred",
      "type": "event"
    },
    {
      "inputs": [
        {
          "internalType": "string",
          "name": "name",
          "type": "string"
        }
      ],
      "name": "createCauseVault",
      "outputs": [
        {
          "internalType": "address",
          "name": "",
          "type": "address"
        }
      ],
      "stateMutability": "nonpayable",
      "type": "function"
    },
    {
      "inputs": [],
      "name": "getVaults",
      "outputs": [
        {
          "internalType": "address[]",
          "name": "",
          "type": "address[]"
        }
      ],
      "stateMutability": "view",
      "type": "function"
    },
    {
      "inputs": [],
      "name": "owner",
      "outputs": [
        {
          "internalType": "address",
          "name": "",
          "type": "address"
        }
      ],
      "stateMutability": "view",
      "type": "function"
    },
    {
      "inputs": [],
      "name": "renounceOwnership",
      "outputs": [],
      "stateMutability": "nonpayable",
      "type": "function"
    },
    {
      "inputs": [
        {
          "internalType": "address",
          "name": "newOwner",
          "type": "address"
        }
      ],
      "name": "transferOwnership",
      "outputs": [],
      "stateMutability": "nonpayable",
      "type": "function"
    },
    {
      "inputs": [
        {
          "internalType": "uint256",
          "name": "",
          "type": "uint256"
        }
      ],
      "name": "vaults",
      "outputs": [
        {
          "internalType": "address",
          "name": "",
          "type": "address"
        }
      ],
      "stateMutability": "view",
      "type": "function"
    }
  ],
  "bytecode": "0x608060405234801561001057600080fd5b50338061003757604051631e4fbdf760e01b81526000600482015260240160405180910390fd5b61004081610046565b50610096565b600080546001600160a01b038381166001600160a01b0319831681178455604051919092169283917f8be0079c531659141344cd1fd0a4f28419497f9722a3daafe3b4186f6b6457e09190a35050565b611052806100a56000396000f3fe608060405234801561001057600080fd5b50600436106100625760003560e01c806344d00f82146100675780634f93352414610085578063715018a6146100b05780638c64ea4a146100ba5780638da5cb5b146100cd578063f2fde38b146100de575b600080fd5b61006f6100f1565b60405161007c919061032d565b60405180910390f35b610098610093366004610390565b610153565b6040516001600160a01b03909116815260200161007c565b6100b8610222565b005b6100986100c8366004610441565b610236565b6000546001600160a01b0316610098565b6100b86100ec36600461045a565b610260565b6060600180548060200260200160405190810160405280929190818152602001828054801561014957602002820191906000526020600020905b81546001600160a01b0316815260019091019060200180831161012b575b5050505050905090565b600061015d6102a3565b6000823360405161016d90610320565b61017892919061048a565b604051809103906000f080158015610194573d6000803e3d6000fd5b506001805480820182556000919091527fb10e2d527612073b26eecdfd717e6a320cf44b4afac2b0732d9fcbe2b7fa0cf60180546001600160a01b0319166001600160a01b0383161790556040519091507fdcb3ff58e00b5844b606ddfb458cd524cbfa250dfd1e300ad479baa6c6912ee890610214908590849061048a565b60405180910390a192915050565b61022a6102a3565b61023460006102d0565b565b6001818154811061024657600080fd5b6000918252602090912001546001600160a01b0316905081565b6102686102a3565b6001600160a01b03811661029757604051631e4fbdf760e01b8152600060048201526024015b60405180910390fd5b6102a0816102d0565b50565b6000546001600160a01b031633146102345760405163118cdaa760e01b815233600482015260240161028e565b600080546001600160a01b038381166001600160a01b0319831681178455604051919092169283917f8be0079c531659141344cd1fd0a4f28419497f9722a3daafe3b4186f6b6457e09190a35050565b610b32806104eb83390190565b6020808252825182820181905260009190848201906040850190845b8181101561036e5783516001600160a01b031683529284019291840191600101610349565b50909695505050505050565b634e487b7160e01b600052604160045260246000fd5b6000602082840312156103a257600080fd5b813567ffffffffffffffff808211156103ba57600080fd5b818401915084601f8301126103ce57600080fd5b8135818111156103e0576103e061037a565b604051601f8201601f19908116603f011681019083821181831017156104085761040861037a565b8160405282815287602084870101111561042157600080fd5b826020860160208301376000928101602001929092525095945050505050565b60006020828403121561045357600080fd5b5035919050565b60006020828403121561046c57600080fd5b81356001600160a01b038116811461048357600080fd5b9392505050565b604081526000835180604084015260005b818110156104b8576020818701810151606086840101520161049b565b50600060608285018101919091526001600160a01b03949094166020840152601f01601f19169091019091019291505056fe60806040523480156200001157600080fd5b5060405162000b3238038062000b3283398101604081905262000034916200010a565b806001600160a01b0381166200006457604051631e4fbdf760e01b81526000600482015260240160405180910390fd5b6200006f8162000087565b5060016200007e838262000281565b5050506200034d565b600080546001600160a01b038381166001600160a01b0319831681178455604051919092169283917f8be0079c531659141344cd1fd0a4f28419497f9722a3daafe3b4186f6b6457e09190a35050565b634e487b7160e01b600052604160045260246000fd5b80516001600160a01b03811681146200010557600080fd5b919050565b600080604083850312156200011e57600080fd5b82516001600160401b03808211156200013657600080fd5b818501915085601f8301126200014b57600080fd5b815181811115620001605762000160620000d7565b604051601f8201601f19908116603f011681019083821181831017156200018b576200018b620000d7565b81604052828152602093508884848701011115620001a857600080fd5b600091505b82821015620001cc5784820184015181830185015290830190620001ad565b6000848483010152809650505050620001e7818601620000ed565b925050509250929050565b600181811c908216806200020757607f821691505b6020821081036200022857634e487b7160e01b600052602260045260246000fd5b50919050565b601f8211156200027c57600081815260208120601f850160051c81016020861015620002575750805b601f850160051c820191505b81811015620002785782815560010162000263565b5050505b505050565b81516001600160401b038111156200029d576200029d620000d7565b620002b581620002ae8454620001f2565b846200022e565b602080601f831160018114620002ed5760008415620002d45750858301515b600019600386901b1c1916600185901b17855562000278565b600085815260208120601f198616915b828110156200031e57888601518255948401946001909101908401620002fd565b50858210156200033d5787850151600019600388901b60f8161c191681555b5050505050600190811b01905550565b6107d5806200035d6000396000f3fe608060405234801561001057600080fd5b50600436106100625760003560e01c806306fdde031461006757806347e7ef2414610085578063715018a61461009a5780638da5cb5b146100a2578063d9caed12146100bd578063f2fde38b146100d0575b600080fd5b61006f6100e3565b60405161007c9190610657565b60405180910390f35b6100986100933660046106a6565b610171565b005b61009861021f565b6000546040516001600160a01b03909116815260200161007c565b6100986100cb3660046106d0565b610233565b6100986100de36600461070c565b61033b565b600180546100f090610727565b80601f016020809104026020016040519081016040528092919081815260200182805461011c90610727565b80156101695780601f1061013e57610100808354040283529160200191610169565b820191906000526020600020905b81548152906001019060200180831161014c57829003601f168201915b505050505081565b600081116101c65760405162461bcd60e51b815260206004820152601d60248201527f416d6f756e74206d7573742062652067726561746572207468616e203000000060448201526064015b60405180910390fd5b6101db6001600160a01b038316333084610379565b6040518181526001600160a01b0383169033907f7be377fc58fe5de9bdbdbb0bc41cba05cf72996fbddb2a421c0c52e405105d8c9060200160405180910390a35050565b6102276103e6565b6102316000610413565b565b61023b6103e6565b6001600160a01b0382166102855760405162461bcd60e51b8152602060048201526011602482015270125b9d985b1a59081c9958da5c1a595b9d607a1b60448201526064016101bd565b600081116102d55760405162461bcd60e51b815260206004820152601d60248201527f416d6f756e74206d7573742062652067726561746572207468616e203000000060448201526064016101bd565b6102e96001600160a01b0384168383610463565b826001600160a01b0316826001600160a01b03167fa92ff919b850e4909ab2261d907ef955f11bc1716733a6cbece38d163a69af8a8360405161032e91815260200190565b60405180910390a3505050565b6103436103e6565b6001600160a01b03811661036d57604051631e4fbdf760e01b8152600060048201526024016101bd565b61037681610413565b50565b6040516001600160a01b0384811660248301528381166044830152606482018390526103e09186918216906323b872dd906084015b604051602081830303815290604052915060e01b6020820180516001600160e01b038381831617835250505050610499565b50505050565b6000546001600160a01b031633146102315760405163118cdaa760e01b81523360048201526024016101bd565b600080546001600160a01b038381166001600160a01b0319831681178455604051919092169283917f8be0079c531659141344cd1fd0a4f28419497f9722a3daafe3b4186f6b6457e09190a35050565b6040516001600160a01b0383811660248301526044820183905261049491859182169063a9059cbb906064016103ae565b505050565b60006104ae6001600160a01b038416836104fc565b905080516000141580156104d35750808060200190518101906104d19190610761565b155b1561049457604051635274afe760e01b81526001600160a01b03841660048201526024016101bd565b606061050a83836000610511565b9392505050565b6060814710156105365760405163cd78605960e01b81523060048201526024016101bd565b600080856001600160a01b031684866040516105529190610783565b60006040518083038185875af1925050503d806000811461058f576040519150601f19603f3d011682016040523d82523d6000602084013e610594565b606091505b50915091506105a48683836105ae565b9695505050505050565b6060826105c3576105be8261060a565b61050a565b81511580156105da57506001600160a01b0384163b155b1561060357604051639996b31560e01b81526001600160a01b03851660048201526024016101bd565b508061050a565b80511561061a5780518082602001fd5b604051630a12f52160e11b815260040160405180910390fd5b60005b8381101561064e578181015183820152602001610636565b50506000910152565b6020815260008251806020840152610676816040850160208701610633565b601f01601f19169190910160400192915050565b80356001600160a01b03811681146106a157600080fd5b919050565b600080604083850312156106b957600080fd5b6106c28361068a565b946020939093013593505050565b6000806000606084860312156106e557600080fd5b6106ee8461068a565b92506106fc6020850161068a565b9150604084013590509250925092565b60006020828403121561071e57600080fd5b61050a8261068a565b600181811c9082168061073b57607f821691505b60208210810361075b57634e487b7160e01b600052602260045260246000fd5b50919050565b60006020828403121561077357600080fd5b8151801515811461050a57600080fd5b60008251610795818460208701610633565b919091019291505056fea2646970667358221220462662d9ee9fdcacaa1a16b82b2143f5410491c3e7971f40a70f7404f02be51564736f6c63430008140033a2646970667358221220073aa027c747f980ecddc134e9d88a431c5f2d303d96974163cdb9b3cc4ef19864736f6c63430008140033",
  "linkReferences": {},
  "deployedLinkReferences": {}
}